:100000000C942A000C943F000C943F000C943F0089
:100010000C943F000C943F000C943F000C943F0064
:100020000C943F000C943F000C943F000C943F0054
:100030000C943F000C943F000C943F000C943F0044
:100040000C943F000C943F000C943F000C943F0034
:100050000C943F0011241FBECFE5D8E0DEBFCDBF1A
:1000600010E0A0E6B0E0EEE6F8E002C005900D92E8
:10007000A037B107D9F70E9462030C9435040C94A1
:1000800000002F923F924F925F926F927F928F92D9
:100090009F92AF92BF92CF92DF92EF92FF920F9317
:1000A0001F93CF93DF93CDB7DEB72B013C012DB665
:1000B0003EB697FF03C08DE20E940303A3019201A5
:1000C00010E09AE0C92ED12CE12CF12C1216130667
:1000D0001406150644F41F5FCA01B901A701960171
:1000E0000E94DA03F3CF8DB79EB7811B91090FB63B
:1000F000F8949EBF0FBE8DBFEDB7FEB731966F016E
:100100000E2F7F018AE0882E912CA12CB12C8E2DF0
:10011000801B811760F4C301B201A50194010E9404
:10012000DA03F70161937F0129013A01F0CF60E022
:1001300081E00E944B03112351F0F601E10FF11D04
:1001400031978081805D0E9403031150F4CF0FB678
:10015000F8943EBE0FBE2DBEDF91CF911F910F913F
:10016000FF90EF90DF90CF90BF90AF909F908F90D7
:100170007F906F905F904F903F902F900895442311
:1001800079F1413009F05FC0813079F028F0823098
:10019000A9F08330E1F008952AB381E090E001C036
:1001A000880F6A95EAF7822B2CC027B381E090E094
:1001B00001C0880F6A95EAF7822B2EC024B381E034
:1001C00090E001C0880F6A95EAF7822B30C021B316
:1001D00081E090E001C0880F6A95EAF7822B32C077
:1001E000813089F028F08230C9F0833011F1089510
:1001F0002AB381E090E001C0880F6A95EAF7809504
:1002000082238ABB089527B381E090E001C0880F64
:100210006A95EAF78095822387BB089524B381E02D
:1002200090E001C0880F6A95EAF78095822384BB2D
:10023000089521B381E090E001C0880F6A95EAF744
:100240008095822381BB0895442379F1413009F0E0
:100250005FC0813079F028F08230A9F08330E1F07E
:1002600008952BB381E090E001C0880F6A95EAF70A
:10027000822B2CC028B381E090E001C0880F6A95E2
:10028000EAF7822B2EC025B381E090E001C0880FF1
:100290006A95EAF7822B30C022B381E090E001C07A
:1002A000880F6A95EAF7822B32C0813089F028F0F6
:1002B0008230C9F0833011F108952BB381E090E0D2
:1002C00001C0880F6A95EAF7809582238BBB089559
:1002D00028B381E090E001C0880F6A95EAF7809525
:1002E000822388BB089525B381E090E001C0880F88
:1002F0006A95EAF78095822385BB089522B381E051
:1003000090E001C0880F6A95EAF78095822382BB4E
:100310000895FA01813041F028F0823039F08330BD
:1003200039F0089589B305C086B303C083B301C013
:1003300080B390E002C0959587956A95E2F7817049
:1003400080830895813081F028F08230B9F08330C5
:10035000F9F008952BB381E090E001C0880F6A9511
:10036000EAF7822B8BBB089528B381E090E001C0AF
:10037000880F6A95EAF7822B88BB089525B381E040
:1003800090E001C0880F6A95EAF7822B85BB08953B
:1003900022B381E090E001C0880F6A95EAF7822BD2
:1003A00082BB089541E060E083E00E94BF0041E02D
:1003B00061E083E00E94BF0041E062E083E00E94D0
:1003C000BF0041E063E083E00E94BF0040E064E0E2
:1003D00083E00E94BF0040E065E083E00E94BF0030
:1003E00040E066E083E00E94BF0040E067E083E019
:1003F0000E94BF0064E083E00E94A20165E083E008
:100400000E94A20166E083E00E94A20167E083E00F
:100410000E94A20141E060E083E00E94240141E0EB
:1004200061E083E00E94240141E062E083E00E94F9
:10043000240141E063E083E00C942401BF92CF9259
:10044000DF92EF92FF920F931F93CF93DF931F9250
:10045000CDB7DEB7198280E6E82E80E0F82E90E472
:10046000B92E10E040E0612F83E00E942401670173
:1004700004E0AE014F5F5F4F602F83E00E9489016F
:100480008981811113C0F601B0808981811108C072
:10049000AE014F5F5F4F602F83E00E948901F5CF6F
:1004A0008FE39CE90197F1F700C000000F5F94E033
:1004B000C90ED11C0830E9F641E0612F83E00E94AB
:1004C00024011F5FEFEFEE1AFE0A143059F68B2D50
:1004D0000F90DF91CF911F910F91FF90EF90DF90E0
:1004E000CF90BF900895CF93C82F40E061E081E0A6
:1004F0000E94240140E062E081E00E94240140E08B
:1005000063E081E00E9424018BB39C2F907F8F7069
:10051000892B8BBB41E063E081E00E9424018FE9DD
:100520009FE00197F1F700C0000040E063E081E048
:100530000E9424012BB330E1C39FC0011124922FEC
:100540009F70892B8BBB41E063E081E00E94240116
:100550008FE99FE00197F1F700C0000040E063E001
:1005600081E00E9424018FE19EE40197F1F700C031
:100570000000CF91089541E061E081E00E94BF005A
:1005800041E062E081E00E94BF0041E063E081E081
:100590000E94BF0041E064E080E00E94BF0041E0B3
:1005A00065E080E00E94BF0041E066E080E00E94DC
:1005B000BF0041E067E080E00E94BF002FEF81EEC6
:1005C00094E0215080409040E1F700C0000083E3B8
:1005D0000E94730282E30E94730288E20E94730207
:1005E0008CE00E94730281E00E94730286E00E9408
:1005F000730282E00E9473028FE19EE40197F1F79B
:1006000000C000000895CF93C82F41E061E081E071
:100610000E94240140E062E081E00E94240140E069
:1006200063E081E00E9424018BB39C2F907F8F7048
:10063000892B8BBB41E063E081E00E9424018FE9BC
:100640009FE00197F1F700C0000040E063E081E027
:100650000E9424012BB330E1C39FC0011124922FCB
:100660009F70892B8BBB41E063E081E00E942401F5
:100670008FE99FE00197F1F700C0000040E063E0E0
:1006800081E00E9424018FE19EE40197F1F700C010
:100690000000CF910895CF93DF9300D0CDB7DEB7A0
:1006A00090E8998390EC9A83FE01E80FF11D818117
:1006B000860F0F900F90DF91CF910C94730281E021
:1006C0000C9473020E94BB020E94D201C0E3812CF1
:1006D000912C5401C12CD12C76010E941E02D82FDE
:1006E0008034D9F3833619F40E945F03F0CF8D3341
:1006F00061F5CB32C9F058F4CA3211F5A501940165
:10070000C701B6010E94CA034B015C0116C0CD327D
:1007100081F0CF32A9F4C501B401A70196010E946E
:10072000DA0349015A0109C08C0C9D1CAE1CBF1C88
:1007300004C08C189D08AE08BF08C12CD12C7601CE
:10074000C501B4010E944100C8CF8D7F8D3221F0D8
:1007500086ED8D0F823038F48D2F0E940303CD2F4C
:1007600046015701B7CF8D2F0E940303AAE0B0E0E6
:10077000A70196010E94F903CD2ED12C20E3C21AC5
:10078000D1080D2C000CEE08FF08C60ED71EE81E7F
:10079000F91EA3CFDB018F939F930E94F903BF91B2
:1007A000AF91A29F800D911DA39F900DB29F900DC0
:1007B00011240895052E97FB1EF400940E94F10366
:1007C00057FD07D00E94040407FC03D04EF40C949C
:1007D000F10350954095309521953F4F4F4F5F4F16
:1007E000089590958095709561957F4F8F4F9F4F9D
:1007F00008950E942604A59F900DB49F900DA49F7C
:10080000800D911D11240895A1E21A2EAA1BBB1B75
:10081000FD010DC0AA1FBB1FEE1FFF1FA217B307CC
:10082000E407F50720F0A21BB30BE40BF50B661FE2
:10083000771F881F991F1A9469F7609570958095A6
:1008400090959B01AC01BD01CF010895A29FB0011D
:10085000B39FC001A39F700D811D1124911DB29FF4
:0E086000700D811D1124911D0895F894FFCF95
:10086E003738392F3435362A3132332D63303D2B1C
:00000001FF
